:040000003AEF08F0DB
:100E00000048656C6C6F20776F726C640000036E35
:100E100003C001F00F0E0116013AF00E011603385F
:100E20000F0B0F0B0110036E03C001F0330E011600
:100E3000D8900136D89001360340E8423F0B330B7F
:100E40000110036E03C001F0550E0116D890013455
:100E5000026ED8900330550B0210036E035012003F
:100E6000000E0A6E000E096E10D009500524076EA0
:100E70000A500620086E07C0F6FF08C0F7FF0800FA
:100E8000F550EDEC07F0094A0A2A09500524076ECF
:100E90000A500620086E07C0F6FF08C0F7FF0800DA
:100EA000F5500009D8B41200E0D7056E04C006F072
:100EB000D890063603500626D890063605500626EA
:100EC000D8900636062A063AF00E061624EC08F0EC
:100ED0000009D8A4FBD78C96F80E31EC08F0065028
:100EE00031EC08F0000E31EC08F08C861200D35083
:100EF0007009D36E959895949596958294908C866A
:100F000000F0560E016EB60EE82EFED7012EFCD76D
:100F1000560E016EB60EE82EFED7012EFCD7560EE9
:100F2000016EB60EE82EFED7012EFCD712000E0180
:100F30001E85F40E0E011E17050E0E011D13F50E73
:100F40000E011D17500E0E0130135F0E0E013017EB
:100F5000F10E0F011917310E0F0119130F011A8F1E
:100F60000F011A9D8F0E0F01391712000450140D36
:100F7000F3500624086E085007EC07F0086E24ECC6
:100F800008F00009D8A4FBD78C96F80E31EC08F0D5
:100F90000850F00B31EC08F00838F00B100931EC78
:100FA00008F01200000E0B6E16EC08F0010E056E34
:100FB0000E0E066E30EC07F0000E056E020E046E8B
:100FC000000E076E000E066EB6EC07F0070E056EFB
:100FD0000E0E066E30EC07F0FFD7046E045007ECDF
:100FE00007F0046E24EC08F00009D8A4FBD78C9617
:100FF000FA0E31EC08F00450F00B31EC08F0043834
:10100000F00B31EC08F08C86120024EC08F000099B
:10101000D8A4FBD78C96F80E31EC08F0800E31EC9A
:1010200008F0000E31EC08F08C86120077EC07F027
:1010300097EC07F005EC08F0010E036E000E046E4D
:10104000010E55EC07F012008C96FC0E31EC08F006
:10105000000E31EC08F0026E8C8600D00250010BBD
:101060001200016E01C003FF0F011AA1FDD70F018D
:1010700003511200000EF86E0E0EF76E0001D2EF53
:0210800007F077
:020000040001F9
:10FFF000A0F728FF33F0FFF703FFFFFF1DF0F8F332
:00000001FF
