:04000000D5EF07F041
:100E00000048656C6C6F20776F726C640000000E98
:100E10000D6ED3507009D36EA0EC07F095989594A1
:100E20009596958294908C8600F0560E0C6EB60EB8
:100E3000E82EFED70C2EFCD7560E0C6EB60EE82E02
:100E4000FED70C2EFCD7560E0C6EB60EE82EFED733
:100E50000C2EFCD78C96F80ECCEC07F0F00ECCECF8
:100E600007F0000ECCEC07F08C86BFEC07F0000911
:100E7000D8A4FBD7010E066E0E0E076E7BEC07F0B2
:100E8000FFD7056E05C003F00F0E0316033AF00EF0
:100E9000031605380F0B0F0B0310056E05C003F08A
:100EA000330E0316D8900336D89003360540E84237
:100EB0003F0B330B0310056E05C003F0550E0316F0
:100EC000D8900334046ED8900530550B0410056E8D
:100ED000BFEC07F00009D8A4FBD78C96FA0ECCEC37
:100EE00007F00550F00BCCEC07F00538F00BCCEC1C
:100EF00007F08C861200000E0B6E000E0A6E10D0EA
:100F00000A500624086E0B500720096E08C0F6FF31
:100F100009C0F7FF0800F55041EC07F00A4A0B2A18
:100F20000A500624086E0B500720096E08C0F6FF11
:100F300009C0F7FF0800F5500009D8B41200E0D747
:100F40000E011E85F40E0E011E17050E0E011D1357
:100F5000F50E0E011D17500E0E0130135F0E0E011F
:100F60003017F10E0F011917310E0F0119130F0170
:100F70001A8F0F011A9D8F0E0F01391712008C96D0
:100F8000FC0ECCEC07F0000ECCEC07F0026E8C8669
:100F900000D00250010B1200016E01C003FF0F01CF
:100FA0001AA1FDD70F0103511200000EF86E0E0EAC
:080FB000F76E000107EF07F0E6
:020000040001F9
:10FFF000A0F728FF33F0FFF703FFFFFF1DF0F8F332
:00000001FF
