:0400000009EF08F00C
:100E00000048656C6C6F20776F726C640000056E33
:100E100005C003F00F0E0316033AF00E0316053853
:100E20000F0B0F0B0310056E05C003F0330E0316F6
:100E3000D8900336D89003360540E8423F0B330B79
:100E40000310056E05C003F0550E0316D890033449
:100E5000046ED8900530550B0410056EF3EC07F0C6
:100E60000009D8A4FBD78C96FA0E00EC08F00550C8
:100E7000F00B00EC08F00538F00B00EC08F08C8665
:100E80001200000E0B6E000E0A6E10D00A500624DF
:100E9000086E0B500720096E08C0F6FF09C0F7FF67
:100EA0000800F55007EC07F00A4A0B2A0A500624FE
:100EB000086E0B500720096E08C0F6FF09C0F7FF47
:100EC0000800F5500009D8B41200E0D7056E04C040
:100ED00006F0D890063603500626D8900636055000
:100EE0000626D8900636062A063AF00E0616F3ECC9
:100EF00007F00009D8A4FBD78C96F80E00EC08F098
:100F0000065000EC08F0000E00EC08F08C86120091
:100F1000D3507009D36E9598959495969582949038
:100F20008C8600F0560E016EB60EE82EFED7012E0E
:100F3000FCD7560E016EB60EE82EFED7012EFCD75A
:100F4000560E016EB60EE82EFED7012EFCD712000B
:100F50000E011E85F40E0E011E17050E0E011D1347
:100F6000F50E0E011D17500E0E0130135F0E0E010F
:100F70003017F10E0F011917310E0F0119130F0160
:100F80001A8F0F011A9D8F0E0F0139171200000ED4
:100F90000C6EA8EC07F088EC07F0F3EC07F0000902
:100FA000D8A4FBD7E2EC07F0010E036E000E046E2E
:100FB000010E66EC07F0010E066E0E0E076E41EC98
:100FC00007F0FFD7F3EC07F00009D8A4FBD78C9605
:100FD000F80E00EC08F0800E00EC08F0000E00ECBB
:100FE00008F08C8612008C96FC0E00EC08F0000EC7
:100FF00000EC08F0026E8C8600D00250010B12004B
:10100000016E01C003FF0F011AA1FDD70F010351AB
:101010001200000EF86E0E0EF76E0001C7EF07F01B
:020000040001F9
:10FFF000A0F728FF33F0FFF703FFFFFF1DF0F8F332
:00000001FF
