:040000005AEF00F0C3
:100018002480D8CF01F0E8CF02F0E0CF03F0FACF88
:1000280004F0FBCF05F0E9CF06F0EACF07F0E1CF07
:1000380008F0E2CF09F0D9CF0AF0DACF0BF0F3CF0E
:100048000CF0F4CF0DF0F6CF0EF0F7CF0FF0F8CF9D
:1000580010F0F5CF11F0F2A405D008EC01F0F294FD
:10006800D768D66811C0F5FF10C0F8FF0FC0F7FFBA
:100078000EC0F6FF0DC0F4FF0CC0F3FF0BC0DAFF93
:100088000AC0D9FF09C0E2FF08C0E1FF07C0EAFFC4
:1000980006C0E9FF05C0FBFF04C0FAFF03C0E0FF8C
:1000A80002C0E8FF01C0D8FF24901000EFEF00F075
:1000B800176E1C501D10D8A4FCD714C01EF015C014
:1000C8001FF0000E1D6E180E1C6E000E186E000E2E
:1000D800196E000E1A6E000E1B6E13C016F0F00E8D
:1000E80016161650186E196A1A6A1B6A040ED890EA
:1000F800183619361A361B36E82EF9D713C016F0FB
:100108000F0E161616501826000E19221A221B2238
:10011800020ED890183619361A361B36E82EF9D73B
:1001280017501826000E19221A221B22D8901836AA
:1001380019361A361B3612501826000E19221A22A2
:100148001B22050ED890183619361A361B36E82E9B
:10015800F9D71F0E1826000E19221A221B22010E8B
:10016800206E1AEC01F01200D1EC00F0000E126EB5
:10017800020E136E060E156E400E146E000E5CEC29
:1001880000F0000E126E480E136E000E156E320E41
:10019800146E000E5CEC00F0F4D7000E136E000E27
:1001A800126EE2EC00F001EC01F00FEC01F0860EAB
:1001B800136EA00E126EFAEC00F0120018EC01F0AB
:1001C800D58CD550CF0B1009D56ED586D590D59244
:1001D800D594D668120000EE18F0090EEE6AE8060B
:1001E800FDE1249024920001B8EF00F015EC01F035
:1001F80012C021F013C022F012009598959695949C
:1002080095828C868C8412008C748CA402D0010E8A
:100218001200000E1200F194F28AF28CF28ED08E47
:100228001200010E236E1200D59E1200D58E120008
:020000040001F9
:10FFF000A0F729F033F0FFF703FFFFFF1DF0F8F340
:00000001FF
